:100000000C9462000C948A000C948A000C948A0070
:100010000C948A000C948A000C948A000C948A0038
:100020000C948A000C948A000C948A000C948A0028
:100030000C948A000C948A000C948A000C948A0018
:100040000C944C050C948A000C941A050C94F4043E
:100050000C948A000C948A000C948A000C948A00F8
:100060000C948A000C948A000000000023002600F3
:10007000290000000008000201000003040700003E
:1000800000000000000000000000250028002B00F8
:1000900000000000240027002A00040404040404D3
:1000A0000404020202020202030303030303010227
:1000B00004081020408001020408102001020408F6
:1000C0001020960511241FBECFEFD8E0DEBFCDBFB4
:1000D00011E0A0E0B1E0E2E2F3E102C005900D9290
:1000E000AA34B107D9F723E0AAE4B1E001C01D9218
:1000F000AE32B207E1F710E0C2E6D0E004C02197CB
:10010000FE010E948409C136D107C9F70E9410067A
:100110000C948F090C940000EBE7F1E0A089B18901
:1001200082E08C93A485B5851C92A685B78580E175
:100130008C93108EA489B58986E08C93A289B389AB
:100140008C9180618C93A289B3898C9188608C9307
:10015000A289B3898C9180688C930288F389E02D01
:1001600080818F7D8083089590E0FC01E255FF4FF0
:100170002491FC01E656FF4F8491882399F090E08A
:10018000880F991FFC01E057FF4FA591B491FC0126
:10019000EA57FF4F859194918FB7F894EC91E22B39
:1001A000EC938FBF0895CF92DF92EF92FF920F935F
:1001B0001F93CF93DF936C017A018B01C0E0D0E0F5
:1001C000CE15DF0589F0D8016D918D01D601ED9135
:1001D000FC910190F081E02DC6010995892B11F465
:1001E0007E0102C02196ECCFC701DF91CF911F9114
:1001F0000F91FF90EF90DF90CF900895FC01918DCB
:10020000828D981761F0828DDF01A80FB11D5D9678
:100210008C91928D9F5F9F73928F90E008958FEFE6
:100220009FEF0895FC01918D828D981731F0828D9A
:10023000E80FF11D858D90E008958FEF9FEF0895F1
:10024000FC01918D228D892F90E0805C9F4F821B55
:1002500091098F73992708958BE791E00E942001FF
:1002600021E0892B09F420E0822F0895FC01848D80
:10027000DF01A80FB11DA35ABF4F2C91848D90E0D0
:1002800001968F739927848FA689B7892C93A089AB
:10029000B1898C9180648C93938D848D981306C062
:1002A0000288F389E02D80818F7D80830895EF920D
:1002B000FF920F931F93CF93DF93EC0181E0888F20
:1002C0009B8D8C8D981305C0E889F989808185FD07
:1002D00024C0F62E0B8D10E00F5F1F4F0F731127F8
:1002E000E02E8C8DE8120CC00FB607FCFACFE8891F
:1002F000F989808185FFF5CFCE010E943601F1CFCB
:100300008B8DFE01E80FF11DE35AFF4FF0820B8F3A
:10031000EA89FB898081806207C0EE89FF8960835A
:10032000E889F98980818064808381E090E0DF91B1
:10033000CF911F910F91FF90EF900895CF93DF938E
:10034000EC01888D8823C9F0EA89FB89808185FDCD
:1003500005C0A889B9898C9186FD0FC00FB607FC2E
:10036000F5CF808185FFF2CFA889B9898C9185FF6F
:10037000EDCFCE010E943601E7CFDF91CF910895F6
:1003800080E090E0892B29F00E942C0181110C94CF
:1003900000000895833081F028F4813099F0823094
:1003A000A1F008958730A9F08830B9F08430D1F4F5
:1003B000809180008F7D03C0809180008F77809333
:1003C0008000089584B58F7702C084B58F7D84BD89
:1003D00008958091B0008F7703C08091B0008F7D29
:1003E0008093B00008951F93CF93DF93282F30E0C0
:1003F000F901EE58FF4F8491F901E255FF4FD49176
:10040000F901E656FF4FC491CC23C9F0162F811194
:100410000E94CA01EC2FF0E0EE0FFF1FEA57FF4FDA
:10042000A591B4918FB7F894111105C09C91ED2F4F
:10043000E095E92302C0EC91ED2BEC938FBFDF91A7
:10044000CF911F9108953FB7F89480914F019091FB
:100450005001A0915101B091520126B5A89B05C051
:100460002F3F19F00196A11DB11D3FBFBA2FA92F33
:10047000982F8827820F911DA11DB11DBC01CD01B0
:1004800042E0660F771F881F991F4A95D1F708959C
:100490008F929F92AF92BF92CF92DF92EF92FF9294
:1004A0006B017C010E9423024B015C01C114D10449
:1004B000E104F104F1F00E942302DC01CB01881970
:1004C0009909AA09BB09883E9340A105B10570F3BB
:1004D00021E0C21AD108E108F10888EE880E83E015
:1004E000981EA11CB11CC114D104E104F10419F738
:1004F000DDCFFF90EF90DF90CF90BF90AF909F90B7
:100500008F9008952FB7F89460914B0170914C0132
:1005100080914D0190914E012FBF08950E9482025B
:1005200060931E0270931F02809320029093210219
:100530000895CF93DF93C8E1D2E084EF91E0A0E08B
:10054000B0E08E879F87A88BB98B1A8A1B8A1C8A7A
:100550001D8A8E819F81A885B9858A879B87AC87F4
:10056000BD870E9482026E837F8388879987DF918F
:10057000CF910895883028F02091550130E08850BF
:1005800003C02091540130E002C0359527958A952B
:10059000E2F781E020FF80E008958EBD00000DB4F9
:1005A00007FEFDCF8EB508950E948A096115710579
:1005B00079F0FB0101900020E9F73197AF01461B6C
:1005C000570BDC01ED91FC910280F381E02D099441
:1005D00080E090E00895CF93DF93C0915A02D091CC
:1005E0005B0260E171E0CE010E94D60263E471E03B
:1005F000CE01DF91CF910C94D6024F925F926F9211
:100600007F92EF92FF920F931F93CF93DF93CDB71B
:10061000DEB7A1970FB6F894DEBF0FBECDBF7C0149
:10062000FA01CB0119A2223008F42AE08E010F5DF5
:100630001F4F422E512C612C712CBF01A30192013E
:100640000E946209F901CA01015011096A3014F4CB
:10065000605D01C0695CD8016C93232B242B252B92
:1006600061F7B801C7010E94D602A1960FB6F894AF
:10067000DEBF0FBECDBFDF91CF911F910F91FF90D5
:10068000EF907F906F905F904F900895CF92DF92A0
:10069000EF92FF920F931F93CF93DF93EC016A01C8
:1006A0007B01E881F9810190F081E02D6DE20995EF
:1006B0008C0144275527BA014C195D096E097F0941
:1006C0002AE0CE010E94FD02800F911FDF91CF91A1
:1006D0001F910F91FF90EF90DF90CF900895AB01A5
:1006E000770F660B770B77FD0C9446032AE00C948A
:1006F000FD020C94D602BF92CF92DF92EF92FF924E
:100700000F931F93CF93DF93B82E0E9482026B0149
:100710007C0108E112E0CAE5D2E067E171E088817E
:1007200099810E9479034B2D50E060E070E02AE04F
:10073000888199810E94FD026EE171E08881998132
:100740000E9479032AE0B701A601888199810E945D
:10075000FD0260E271E0888199810E947903F801CD
:1007600086819781A085B185B701A601481B590BE9
:100770006A0B7B0B2AE0888199810E94FD0260E26E
:1007800071E0888199810E947903F801468157813F
:100790006085718582859385A485B585481B590B35
:1007A0006A0B7B0B2AE088819981DF91CF911F91A1
:1007B0000F91FF90EF90DF90CF90BF900C94FD02CF
:1007C000CF93DF9360E085E00E94F3010E949902DD
:1007D00082E00E947B03CAE5D2E062E271E0888198
:1007E00099810E9479034091540150E060E070E0EB
:1007F0002AE0888199810E94FD0262E271E088818D
:1008000099810E9479034091550150E060E070E0C9
:100810002AE0888199810E94FD020E94EB020E94D9
:100820008E0261E086E00E94F301809154010E94F3
:10083000CD02809155010E94CD0261E085E00E94C9
:10084000F30160E086E0DF91CF910C94F3017F9299
:100850008F929F92AF92BF92CF92DF92EF92FF92D0
:100860000F931F93CF93DF9386E5E82E81E0F82E58
:10087000C0E0D0E094E1792E812C912C5401839436
:100880006701F701019111917F010E94990287E0B0
:100890000E947B0362E271E080915A0290915B02B8
:1008A0000E947903BE0180915A0290915B020E94DE
:1008B0006F0362E271E080915A0290915B020E94A4
:1008C0007903F6014081518160E070E02AE0809177
:1008D0005A0290915B020E94FD0262E271E08091F7
:1008E0005A0290915B020E9479030A30110548F484
:1008F000709EF001719EF00D1124E05AFD4F618948
:1009000001C060E070E080915A0290915B020E9409
:100910006F030E94EB020E948E028C2F0E94BA028B
:10092000882309F44EC00A30110550F4709EF0017E
:10093000719EF00D1124E05AFD4F8189811141C053
:10094000C830D10564F10E94990288E00E947B03BF
:1009500062E271E080915A0290915B020E947903F9
:10096000BE0180915A0290915B020E946F030E9427
:10097000EB020E948E02CE010897A501940104C0EB
:10098000220F331F441F551F8A95D2F7DA01C90180
:1009900080959091550189238093550110C0D50110
:1009A000C4010C2E04C0880F991FAA1FBB1F0A94F4
:1009B000D2F78095909154018923809354010E942D
:1009C000E0032196C031D10509F05ACFDF91CF91D4
:1009D0001F910F91FF90EF90DF90CF90BF90AF905D
:1009E0009F908F907F9008951F920F920FB60F9255
:1009F00011242F933F934F935F936F937F938F9324
:100A00009F93AF93BF93EF93FF938BE791E00E9487
:100A10003601FF91EF91BF91AF919F918F917F919F
:100A20006F915F914F913F912F910F900FBE0F905B
:100A30001F9018951F920F920FB60F9211242F93AB
:100A40008F939F93EF93FF93E0918B01F0918C0133
:100A50008081E0919101F091920182FD12C090811C
:100A6000809194018F5F8F7320919501821751F0CF
:100A7000E0919401F0E0E558FE4F958F809394014A
:100A800001C08081FF91EF919F918F912F910F90E5
:100A90000FBE0F901F9018951F920F920FB60F92D6
:100AA00011242F933F938F939F93AF93BF93809184
:100AB0004B0190914C01A0914D01B0914E013091AC
:100AC0004A0123E0230F2D3720F40196A11DB11D0B
:100AD00005C026E8230F0296A11DB11D20934A01EF
:100AE00080934B0190934C01A0934D01B0934E0124
:100AF00080914F0190915001A0915101B09152010C
:100B00000196A11DB11D80934F0190935001A093B8
:100B10005101B0935201BF91AF919F918F913F913D
:100B20002F910F900FBE0F901F90189510927E017D
:100B300010927D0188EE93E0A0E0B0E080937F0109
:100B400090938001A0938101B093820184E091E0B1
:100B500090937C0180937B0185EC90E090938801D9
:100B60008093870184EC90E090938A0180938901BF
:100B700080EC90E090938C0180938B0181EC90E06D
:100B800090938E0180938D0182EC90E09093900180
:100B900080938F0186EC90E0909392018093910175
:100BA0001092940110929501109296011092970163
:100BB00010921E0210921F02109220021092210227
:100BC0001092220210922302109224021092250207
:100BD00010922602109227021092280210922902E7
:100BE00010922A0210922B0210922C0210922D02C7
:100BF0000E948202E0E6F2E024E1DF01322F1D9242
:100C00003A95E9F760837183828393837496A3E0B6
:100C1000E832FA0791F710922903109228030895F9
:100C2000CF93DF93CDB7DEB728970FB6F894DEBF2A
:100C30000FBECDBF789484B5826084BD84B58160D9
:100C400084BD85B5826085BD85B5816085BD809197
:100C50006E00816080936E0010928100809181000F
:100C60008260809381008091810081608093810007
:100C7000809180008160809380008091B1008460C9
:100C80008093B1008091B00081608093B00080912A
:100C90007A00846080937A0080917A0082608093E9
:100CA0007A0080917A00816080937A0080917A0046
:100CB000806880937A001092C10010925C021092BA
:100CC0005D0210925E0210925F0210921A02109260
:100CD0001B0210921C0210921D0268EB7BE080E068
:100CE00090E00E9448028BE791E090935B02809332
:100CF0005A020E948C0064E271E080915A02909145
:100D00005B020E9479036AE070E080E090E00E945C
:100D1000480281E080932E021FB7F894809153011E
:100D2000811124C0E4EAF0E08491E8EBF0E09491D2
:100D3000E82FF0E0EE0FFF1FE057FF4FA591B491B1
:100D4000EC91E92321F461E08AE00E94F3018AE05A
:100D50000E94B4008CB580618CBD8CB580648CBD64
:100D60008DE00E94B4008BE00E94B400809153019A
:100D70008F5F809353011FBF85E00E94B40086E01F
:100D80000E94B40084E00E94B40061E084E00E940C
:100D9000F30160E086E00E94F30160E085E00E94DC
:100DA000F30161E086E00E94F30180E00E94CD0241
:100DB00080E00E94CD0261E085E00E94F30160E0E6
:100DC00086E00E94F30161E087E00E94F3010E9447
:100DD0008C009E012F5F3F4F4901C9018E52934005
:100DE00098878F83AA24A394B12C52E0252E312C0E
:100DF0000E9482020091770110917801209179017F
:100E000030917A01DC01CB01801B910BA20BB30B5B
:100E100086399105A105B10508F47DC00E948202C2
:100E200060937701709378018093790190937A01B0
:100E300061E070E080E090E00E94480266E371E0CB
:100E400080915A0290915B020E94790362E271E004
:100E500080915A0290915B020E94790362E271E0F4
:100E600080915A0290915B020E94790362E271E0E4
:100E700080915A0290915B020E94790380912A032B
:100E800090912B03009729F44F8058845A8249820D
:100E90001AC0A401481B590BE0912C03F0912D03BB
:100EA00080E090E0309759F09C012E5F3F4F8081A9
:100EB0009181820F931F0280F381E02DF3CF840F85
:100EC000951F9A83898349815A8180915A02909112
:100ED0005B02052E000C660B770B77FF03C00E94A8
:100EE000460303C02AE00E94FD0262E271E08091A5
:100EF0005A0290915B020E9479036DE371E0809148
:100F00005A0290915B020E94790361E070E080E0F8
:100F100090E00E9448028BE791E00E942001892B1B
:100F200009F436C18BE791E00E94FE0080937601C0
:100F30000E94990281E00E947B0362E271E080914D
:100F40005A0290915B020E9479034091760150E031
:100F500060E070E02AE080915A0290915B020E946A
:100F6000FD020E94EB020E948E0210917601103168
:100F700008F0EAC0812F0E94BA028111CAC00E9403
:100F8000990283E00E947B0362E271E080915A0241
:100F900090915B020E947903412E512C612C712C9F
:100FA0002AE0B301A20180915A0290915B020E9453
:100FB000FD020E94EB020E948E0281E090E0A0E020
:100FC000B0E0183078F028EF210F04C0880F991F87
:100FD000AA1FBB1F2A95D2F720915501822B80931F
:100FE00055010DC0012E04C0880F991FAA1FBB1FF9
:100FF0000A94D2F720915401822B809354010E94CD
:10100000E00380912803909129030A9708F042C0D9
:10101000E0E6F2E0C12CD12C84819581892B91F5F9
:1010200024E12C9DC0012D9D900D11249C01205A7E
:101030003D4F790184EF91E0A0E0B0E0F9018187B4
:101040009287A387B48787E294E09583848317828D
:1010500016821086B686A58681E0818B0E94820268
:10106000D7016D937D938D939C9313978091280363
:1010700090912903019690932903809328030C2DC6
:10108000FD2C0BC0BFEFCB1ADB0A74962AE0C21608
:10109000D10411F60FEFFF24FA940E94990284E024
:1010A0000E947B0362E271E080915A0290915B02A0
:1010B0000E9479032AE0B301A20180915A02909123
:1010C0005B020E94FD020E94EB020E948E02E12F51
:1010D000F0E0EE0FFF1FEA5AFE4F0083F1820E94FC
:1010E000990285E00E947B0362E271E080915A02DE
:1010F00090915B020E947903602F7F2D80915A02AC
:1011000090915B020E946F030E94EB020E948E028C
:101110003FC0E12FF0E0EE0FFF1FEA5AFE4F0081C3
:1011200011810A30110508F033C00E94820224E1C7
:10113000209FF001219FF00D1124E05AFD4F6083A4
:1011400071838283938324C01F3311F5E9E7F0E0B4
:101150008491E5EBF0E01491E1EAF0E004910023E2
:1011600089F081110E94CA01E02FF0E0EE0FFF1F0D
:10117000E859FF4FA591B4918C91182319F066E4BA
:1011800071E002C068E471E08BE791E00E947903AE
:101190000E948202AB01BC0100E612E0F801138A52
:1011A000128A84819581892BA9F180819181A28104
:1011B000B381C184D284E384F4842A013B01481AB8
:1011C000590A6A0A7B0A4C145D046E047F0410F10C
:1011D0008C0D9D1DAE1DBF1D80839183A283B383A3
:1011E00081898823B9F085859685009719F4B38A9B
:1011F000A28A10C0278530892817390758F4B38A86
:10120000A28A2F5F3F4F308B27872817390710F0AE
:10121000338A228A749623E0E832F20709F0BFCFBE
:10122000E12CF12C84E1D82ED80152968D919C911D
:1012300053970097D1F1F701E05AFD4F029709F457
:10124000118A8085D8011496ED91FC911597882319
:1012500031F016968D919C911797099501C00995CB
:10126000F80182899389029701F580912803909172
:101270002903892BD1F084819581892BB1F0D80184
:10128000ED2D1D92EA95E9F70E948202D8016D9337
:101290007D938D939C9313978091280390912903BC
:1012A00001979093290380932803B4E1EB0EF11C7E
:1012B0000C5E1F4FE8ECEE16F10409F0B5CF0E946A
:1012C000C00196CDA1E21A2EAA1BBB1BFD010DC0C9
:1012D000AA1FBB1FEE1FFF1FA217B307E407F507E6
:1012E00020F0A21BB30BE40BF50B661F771F881FC2
:1012F000991F1A9469F760957095809590959B0158
:10130000AC01BD01CF010895EE0FFF1F0590F491D0
:10131000E02D099481E090E0F8940C948F09F89402
:02132000FFCFFD
:10132200000000005701D3002001FE0012019E01BF
:101332005F564D44504500564D4450455F003A3289
:101342003A007C00564D4450565F317C315F564D19
:101352004450560D0A00564D4450525F005F564DA0
:0A1362004450520D0A002D002B002C
:00000001FF
