:100000000C9462000C948A000C948A000C948A0070
:100010000C948A000C948A000C948A000C948A0038
:100020000C948A000C948A000C948A000C948A0028
:100030000C948A000C948A000C948A000C948A0018
:100040000C94F9020C948A000C94C7020C94A1023F
:100050000C948A000C948A000C948A000C948A00F8
:100060000C948A000C948A000000000023002600F3
:10007000290000000008000201000003040700003E
:1000800000000000000000000000250028002B00F8
:1000900000000000240027002A00040404040404D3
:1000A0000404020202020202030303030303010227
:1000B00004081020408001020408102001020408F6
:1000C0001020430311241FBECFEFD8E0DEBFCDBF09
:1000D00011E0A0E0B1E0E2ECFBE002C005900D927F
:1000E000A431B107D9F722E0A4E1B1E001C01D922B
:1000F000A83AB207E1F710E0C2E6D0E004C02197C9
:10010000FE010E94D405C136D107C9F70E949D03A4
:100110000C94DF050C94000090E0FC01E255FF4FC9
:100120002491FC01E656FF4F8491882399F090E0DA
:10013000880F991FFC01E057FF4FA591B491FC0176
:10014000EA57FF4F859194918FB7F894EC91E22B89
:10015000EC938FBF0895CF92DF92EF92FF920F93AF
:100160001F93CF93DF936C017A018B01C0E0D0E045
:10017000CE15DF0589F0D8016D918D01D601ED9185
:10018000FC910190F081E02DC6010995892B11F4B5
:100190007E0102C02196ECCFC701DF91CF911F9164
:1001A0000F91FF90EF90DF90CF900895FC01918D1B
:1001B000828D981761F0828DDF01A80FB11D5D96C9
:1001C0008C91928D9F5F9F73928F90E008958FEF37
:1001D0009FEF0895FC01918D828D981731F0828DEB
:1001E000E80FF11D858D90E008958FEF9FEF089542
:1001F000FC01918D228D892F90E0805C9F4F821BA6
:1002000091098F739927089581E491E00E94F80085
:1002100021E0892B09F420E0822F0895FC01848DD0
:10022000DF01A80FB11DA35ABF4F2C91848D90E020
:1002300001968F739927848FA689B7892C93A089FB
:10024000B1898C9180648C93938D848D981306C0B2
:100250000288F389E02D80818F7D80830895EF925D
:10026000FF920F931F93CF93DF93EC0181E0888F70
:100270009B8D8C8D981305C0E889F989808185FD57
:1002800024C0F62E0B8D10E00F5F1F4F0F73112748
:10029000E02E8C8DE8120CC00FB607FCFACFE8896F
:1002A000F989808185FFF5CFCE010E940E01F1CF43
:1002B0008B8DFE01E80FF11DE35AFF4FF0820B8F8B
:1002C000EA89FB898081806207C0EE89FF896083AB
:1002D000E889F98980818064808381E090E0DF9102
:1002E000CF911F910F91FF90EF900895CF93DF93DF
:1002F000EC01888D8823C9F0EA89FB89808185FD1E
:1003000005C0A889B9898C9186FD0FC00FB607FC7E
:10031000F5CF808185FFF2CFA889B9898C9185FFBF
:10032000EDCFCE010E940E01E7CFDF91CF9108956E
:1003300080E090E0892B29F00E94040181110C9447
:1003400000000895833081F028F4813099F08230E4
:10035000A1F008958730A9F08830B9F08430D1F445
:10036000809180008F7D03C0809180008F77809383
:100370008000089584B58F7702C084B58F7D84BDD9
:1003800008958091B0008F7703C08091B0008F7D79
:100390008093B00008951F93CF93DF93282F30E010
:1003A000F901EE58FF4F8491F901E255FF4FD491C6
:1003B000F901E656FF4FC491CC23C9F0162F8111E5
:1003C0000E94A201EC2FF0E0EE0FFF1FEA57FF4F53
:1003D000A591B4918FB7F894111105C09C91ED2FA0
:1003E000E095E92302C0EC91ED2BEC938FBFDF91F8
:1003F000CF911F9108952FB7F894609119017091D2
:100400001A0180911B0190911C012FBF0895883023
:1004100028F020913F0130E0885003C020913E0138
:1004200030E002C0359527958A95E2F781E020FFFC
:1004300080E008958EBD00000DB407FEFDCF8EB59F
:10044000089560E085E00E94CB0161E086E00E94B3
:10045000CB0180913E010E941A0280913F010E94CF
:100460001A0261E085E00E94CB0160E086E00C9416
:10047000CB018F929F92BF92CF92DF92EF92FF9229
:100480000F931F93CF93DF930EE111E0C0E0D0E014
:10049000C12CD12C7601C39494E1B92EF80181903E
:1004A00091908F018C2F0E9407028823B9F1FAE006
:1004B0008F16910450F4B89CF001B99CF00D1124F2
:1004C000E252FE4F8189811129C0C830D105A4F0C4
:1004D000CE010897A701960104C0220F331F441FC5
:1004E000551F8A95D2F7DA01C901809590913F0195
:1004F000892380933F0110C0D701C6010C2E04C090
:10050000880F991FAA1FBB1F0A94D2F7809590915C
:100510003E01892380933E010E9421022196C03131
:10052000D10509F0BBCFDF91CF911F910F91FF90C3
:10053000EF90DF90CF90BF909F908F9008950E9492
:10054000DA051F920F920FB60F9211242F933F934B
:100550004F935F936F937F938F939F93AF93BF93CB
:10056000EF93FF9381E491E00E940E01FF91EF91E0
:10057000BF91AF919F918F917F916F915F914F91BB
:100580003F912F910F900FBE0F901F9018951F92C3
:100590000F920FB60F9211242F938F939F93EF9387
:1005A000FF93E0915101F09152018081E091570158
:1005B000F091580182FD12C0908180915A018F5FA5
:1005C0008F7320915B01821751F0E0915A01F0E0A6
:1005D000EF5BFE4F958F80935A0101C08081FF91A0
:1005E000EF919F918F912F910F900FBE0F901F90C1
:1005F00018951F920F920FB60F9211242F933F93CD
:100600008F939F93AF93BF938091190190911A019B
:10061000A0911B01B0911C013091180123E0230F20
:100620002D3720F40196A11DB11D05C026E8230F2A
:100630000296A11DB11D209318018093190190937A
:100640001A01A0931B01B0931C0180911401909199
:100650001501A0911601B09117010196A11DB11DC0
:100660008093140190931501A0931601B093170184
:10067000BF91AF919F918F913F912F910F900FBE9E
:100680000F901F901895109244011092430188EE2C
:1006900093E0A0E0B0E08093450190934601A093E1
:1006A0004701B093480184E091E090934201809328
:1006B000410185EC90E090934E0180934D0184ECD4
:1006C00090E09093500180934F0180EC90E09093E4
:1006D00052018093510181EC90E0909354018093FA
:1006E000530182EC90E0909356018093550186EC83
:1006F00090E0909358018093570110925A01109204
:100700005B0110925C0110925D010E94FB01EEED15
:10071000F1E024E1DF01322F1D923A95E9F7608381
:100720007183828393837496A2E0E63AFA0791F785
:100730001092A7021092A6020895789484B5826060
:1007400084BD84B5816084BD85B5826085BD85B575
:10075000816085BD80916E00816080936E001092F3
:10076000810080918100826080938100809181006E
:1007700081608093810080918000816080938000FF
:100780008091B10084608093B1008091B00081605D
:100790008093B00080917A00846080937A00809189
:1007A0007A00826080937A0080917A0081608093E1
:1007B0007A0080917A00806880937A001092C1005C
:1007C000CFB7F89480911D01811124C0E4EAF0E0D4
:1007D0008491E8EBF0E09491E82FF0E0EE0FFF1F3A
:1007E000E057FF4FA591B491EC91E92321F461E02A
:1007F0008AE00E94CB018AE00E948C008CB5806167
:100800008CBD8CB580648CBD8DE00E948C008BE02B
:100810000E948C0080911D018F5F80931D01CFBFCE
:1008200085E00E948C0086E00E948C0084E00E949B
:100830008C0061E084E00E94CB0160E086E00E94D1
:10084000CB0160E085E00E94CB0161E086E00E9480
:10085000CB0180E00E941A0280E00E941A0261E04F
:1008600085E00E94CB0160E086E00E94CB0161E060
:1008700087E00E94CB01E0915101F091520182E0AA
:100880008083E0914D01F0914E011082E0914F0183
:10089000F091500180E1808310925901E09155015F
:1008A000F091560186E08083E0915301F09154016C
:1008B000808180618083E0915301F09154018081B7
:1008C00088608083E0915301F091540180818068B9
:1008D0008083E0915301F091540180818F7D80836A
:1008E00022242394312C54EF452E55245394612C0B
:1008F000712C812C912C5401839481E491E00E940D
:10090000F800892B09F4C3C081E491E00E94D6006D
:10091000EC01182F80934001803108F090C0812FA6
:100920000E940702DD27811170C0183098F0CE01B7
:100930000897A501940104C0220F331F441F551FBF
:100940008A95D2F7DA01C90120913F01822B809369
:100950003F010FC020913E01D501C4010C2E04C0FF
:10096000880F991FAA1FBB1F0A94D2F7822B80936E
:100970003E010E9421028091A6029091A7020A974F
:10098000D8F5EEEDF1E0E12CF12C84819581892BF5
:1009900059F584E18E9D80018F9D100D1124025226
:1009A0001E4FF801418652866386748629E332E041
:1009B000358324831782168210863686258681E049
:1009C000818B0E94FB01F801608371838283938392
:1009D0008091A6029091A70201969093A70280931E
:1009E000A6029E2D8F2D0AC02FEFE21AF20A7496EE
:1009F0003AE0E316F10449F69FEF8FEFCC0FDD1FCD
:100A0000C25EDE4F9883898342C0CC0FDD1FC25E79
:100A1000DE4F0990D881C02DCA30D10508F037C00B
:100A20000E94FB0124E12C9FF0012D9FF00D112469
:100A3000E252FE4F608371838283938328C08F3399
:100A400031F5E9E7F0E08491E5EBF0E0C491E1EA0B
:100A5000F0E0D491DD2399F081110E94A201ED2FE5
:100A6000F0E0EE0FFF1FE859FF4FA591B4918C9174
:100A7000C82329F041E050E060E171E004C041E0AA
:100A800050E062E171E081E491E00E94AB000E94DD
:100A9000FB016B017C01CEEDD1E0FE01138A128ACD
:100AA00084819581892BB9F180819181A281B38163
:100AB000418552856385748597018601081B190B52
:100AC0002A0B3B0B041715072607370720F1840F65
:100AD000951FA61FB71F80839183A283B38381894B
:100AE0008823C9F0258536852115310519F4338A07
:100AF000228A11C0878590898217930760F4338A10
:100B0000228A0196908B87878217930720F022E034
:100B100030E0338B228B749632E0E63AF30709F02B
:100B2000BDCF00E010E084E1F82E8A899B89009710
:100B300091F1F801E252FE4F029709F4118A808583
:100B4000EC81FD81882321F08E819F81099501C070
:100B500009958A899B890297F1F48091A602909168
:100B6000A702892BC1F08C819D81892BA1F0FE0108
:100B70002F2D11922A95E9F70E94FB016883798352
:100B80008A839B838091A6029091A70201979093FC
:100B9000A7028093A6020C5E1F4F6496083C1105C5
:100BA00021F60E949801A9CEEE0FFF1F0590F49147
:100BB000E02D099481E090E0F8940C94DF05F8941E
:020BC000FFCF65
:100BC200000000002F01AB00F800D600EA00760119
:040BD2002D002B00C7
:00000001FF
